:020000040800F2
:10000000000002205D050008AD050008AD050008F0
:10001000AD050008AD050008AD05000800000000B2
:10002000000000000000000000000000AD05000816
:10003000AD05000800000000AD050008AD05000892
:10004000AD050008AD050008AD050008AD050008C8
:10005000AD050008AD050008AD050008AD050008B8
:10006000AD050008AD050008AD050008AD050008A8
:10007000AD050008AD050008AD050008AD05000898
:10008000AD050008AD050008AD0500080000000042
:10009000000000000000000000000000AD050008A6
:1000A000AD050008AD050008AD050008AD05000868
:1000B000AD050008AD050008AD050008AD05000858
:1000C000AD050008AD050008AD050008AD05000848
:1000D000AD050008AD050008AD05000800000000F2
:1000E000AD050008AD050008AD05000800000000E2
:1000F000000000000000000000000000AD05000846
:1001000000000000AD050008AD050008AD050008C1
:1001100000000000000000000000000000000000DF
:10012000AD050008AD050008AD050008AD050008E7
:10013000AD05000800000000000000000000000005
:10014000000000000000000000000000AD050008F5
:10015000AD050008AD050008AD050008AD050008B7
:10016000AD050008AD05000800000000000000001B
:10017000000000000000000000000000000000007F
:1001800000000000AD0500080000000000000000B5
:08019000AD050008AD050008F3
:1001980070B50F4B0F4DAB42A3EB050607D0B61059
:1001A800002455F8043B01349847A642F9D800F0DA
:1001B800B1F9094D094B5E1BAB424FEAA60606D0C2
:1001C800002455F8043B01349847A642F9D870BD7D
:1001D800B0050008B0050008B0050008B005000823
:1001E80080B483B000AF03463960FB7197F90730DC
:1001F800002B0ADB3B68DAB20C4997F90730120189
:10020800D2B20B4483F800230AE03B68DAB208490B
:10021800FB7903F00F03043B1201D2B20B441A76A8
:1002280000BF0C37BD465DF8047B704700E100E075
:1002380000ED00E080B582B000AF78607B68013BDC
:10024800B3F1807F01D301230FE00A4A7B68013BA9
:1002580053600F214FF0FF30FFF7C2FF054B00221C
:100268009A60044B07221A60002318460837BD46D7
:1002780080BD00BF10E000E080B485B000AF7860BA
:10028800084B1A6B07497B6813430B63054B1A6BC2
:100298007B681340FB60FB6800BF1437BD465DF800
:1002A800047B70470038024080B48BB000AFF86020
:1002B800B9607A60FB681A68BB687B617B6993FAEE
:1002C800A3F33B613B69BB61BB69002B01D12023D0
:1002D80003E0BB69B3FA83F3DBB25B00032101FAE5
:1002E80003F3DB431A40BB683B623B6A93FAA3F310
:1002F800FB61FB697B627B6A002B01D1202303E051
:100308007B6AB3FA83F3DBB25B00796801FA03F323
:100318001A43FB681A6000BF2C37BD465DF8047BA2
:10032800704780B485B000AFF860B9607A60FB6848
:100338005A68BB68DB431A40BB68796801FB03F362
:100348001A43FB685A6000BF1437BD465DF8047B4A
:10035800704780B48BB000AFF860B9607A60FB6812
:100368009A68BB687B617B6993FAA3F33B613B693D
:10037800BB61BB69002B01D1202303E0BB69B3FA41
:1003880083F3DBB25B00032101FA03F3DB431A407A
:10039800BB683B623B6A93FAA3F3FB61FB697B6230
:1003A8007B6A002B01D1202303E07B6AB3FA83F335
:1003B800DBB25B00796801FA03F31A43FB689A60C1
:1003C80000BF2C37BD465DF8047B704780B48BB006
:1003D80000AFF860B9607A60FB68DA68BB687B6177
:1003E8007B6993FAA3F33B613B69BB61BB69002B53
:1003F80001D1202303E0BB69B3FA83F3DBB25B00CE
:10040800032101FA03F3DB431A40BB683B623B6AF2
:1004180093FAA3F3FB61FB697B627B6A002B01D132
:10042800202303E07B6AB3FA83F3DBB25B007968CD
:1004380001FA03F31A43FB68DA6000BF2C37BD46A4
:100448005DF8047B704780B485B000AF7860396090
:100458007B685B69FB60FA683B6813401A04FB68B9
:10046800D9433B680B401A437B689A6100BF143735
:10047800BD465DF8047B704780B485B000AF7860F6
:10048800094B1B687A681344FB6000E030BF064BD9
:100498001B68FA689A42F9D800BF00BF1437BD46F6
:1004A8005DF8047B704700BF0400002080B500AFF2
:1004B80000F03EF8144B1B68144AA2FB03239B0967
:1004C8001846FFF7B7FE0120FFF7D6FE01222021CC
:1004D8000F48FFF7E9FE002220210D48FFF721FF12
:1004E800002220210A48FFF734FF00222021084873
:1004F800FFF76CFF20210648FFF7A5FF4FF4FA70BD
:10050800FFF7BAFF00BFF5E700000020D34D6210E7
:100518000000024080B400AF00BFBD465DF8047B18
:10052800704780B400AF00BFBD465DF8047B7047DC
:1005380080B400AF064BD3F88830054A43F4700303
:10054800C2F8883000BFBD465DF8047B704700BF25
:1005580000ED00E0DFF834D0FFF7EAFF0C480D4962
:100568000D4A002302E0D458C4500433C4188C4206
:10057800F9D30A4A0A4C002301E013600432A2426C
:10058800FBD3FFF705FEFFF791FF7047000002203D
:100598000000002004000020B0050008040000202E
:0805A80008000020FEE700003E
:0405B0000024F4002F
:040000050800055D8D
:00000001FF
